:100000000C94AF040C94F6040C94F6040C94F604CF
:100010000C94F6040C94F6040C94F6040C94F60478
:100020000C94F6040C94F6040C94AE220C948023E9
:100030000C94D6190C94F6040C94F6040C94F60463
:100040000C94F6040C94F6040C94F6040C94F60448
:100050000C94F6040C944A1A0C94F6040C94F604CE
:100060000C94F6040C94F6040C94F6040C94F60428
:100070000C94F6040C94F6040C94F6040C94F60418
:100080000C94F6040C94F6040C94F6040C94F60408
:100090000C94F6040C94F6040C94F6040C94F604F8
:1000A0000C94F6040C94F6040C94F604F10FF10F82
:1000B000231023107010AE11AE11AE1190102D113F
:1000C0003E113E119E11AE11AE11A7112C122C1231
:1000D0003E123E1235123E123E123E122C122C12CD
:1000E0003A123E123E123A12ED231424062514242D
:1000F0000625602483240625D924E8242900140039
:100100001A000800150017002B0004001600070055
:1001100009000A00E1001D001B000600190005008F
:100120001C0018000C00120013002A000B000D0028
:100130000E000F00330034001100100036003700AD
:100140003800287201512C0002510000000000000C
:1001500001001E021F02200221022202E2002D02E3
:100160002E022F0230023102E000E10021000600E1
:100170001900E300230224022502260227024C0074
:100180005000510052004F00350035024A004D002A
:100190004B004E0046002C72010028000351000065
:1001A0000000000001001E001F00200021002200AE
:1001B00001002D002E002F00300031000100290029
:1001C000E700E60039003400230024002500260063
:1001D00027004C003A003B003C003D003E003F0041
:1001E00040004100420043004400450003512A0002
:1001F0000100000000000000C95CC75CC55CC35C76
:100200000000C25CCA5CC85CC65CC45C0000000044
:1002100000000000000000000000000000000000DE
:1002200000000000000000000000000000000000CE
:1002300000000000005C0000000000000000000062
:10024000010000000100000000000000444542558C
:10025000473A2064697361626C65642E0A00444504
:100260004255473A20656E61626C65642E0A000A49
:100270000025303862003A200025303258000A72DA
:100280002F632030313233343536370A000A0025E7
:1002900030325820006B6579626F6172645F7265FD
:1002A000706F72743A20000A0025303258006B6576
:1002B00079626F6172645F7365745F6C65643A2024
:1002C000003F00433E20004C25640A0074696D65C0
:1002D000725F72656164333228293A202530346CAC
:1002E000580A006B6579626F6172645F69646C655E
:1002F0003A2025580A006B6579626F6172645F70FD
:10030000726F746F636F6C3A2025580A00686F73C0
:10031000745F6B6579626F6172645F6C656473288A
:10032000293A2025580A000A092D20537461747552
:1003300073202D0A004743433A20342E392E3220B1
:100340004156522D4C4942433A20312E382E3073BB
:10035000766E204156525F415243483A2061767290
:10036000350A004F5054494F4E533A204C554641A0
:100370002045585452414B455920434F4E534F4C02
:100380004520434F4D4D414E4420343039360A000C
:100390004255494C443A2022302E372E3130312DEF
:1003A000372D676235343732322D646972747922A1
:1003B000202830353A34383A3034204465632031CF
:1003C000352032303139290A005649443A203078F4
:1003D0004645454428677469707329205049443A5A
:1003E000203078303030302872657669756E67332A
:1003F0003929205645523A203078303030310A00C1
:10040000444553433A20412033392D6B6579206BA5
:100410006579626F6172640A000A092D205665725F
:1004200073696F6E202D0A000A092D20436F6E73C9
:100430006F6C65202D0A4553432F713A0971756918
:10044000740A000A092D204D61676963202D0A4452
:100450003A094465627567204D657373616765206D
:10046000546F67676C650A583A094D617472697810
:10047000204465627567204D6F646520546F67671F
:100480006C65202D2053686F77206B6579707265DD
:100490007373657320696E206D617472697820676B
:1004A0007269640A4B3A094B6579626F6172642024
:1004B000446562756720546F67676C65202D205313
:1004C000686F77206B6579707265737320726570E1
:1004D0006F72740A4D3A094465627567204D6F75F5
:1004E000736520546F67676C650A563A09566572E2
:1004F00073696F6E0A533A095374617475730A43D2
:100500003A09416374697661746520436F6E736F55
:100510006C65204D6F64650A46312D4631303A09CD
:1005200053776974636820746F204C617965722019
:10053000302D392028463130203D204C30290A30DA
:100540002D393A0953776974636820746F204C61C0
:1005500079657220302D390A47524156453A095380
:10056000776974636820746F204C617965722030FC
:100570002028616C7465726E617465290A423A09BB
:100580004A756D7020746F20426F6F746C6F616478
:1005900065720A4553433A094A756D7020746F209D
:1005A000426F6F746C6F616465722028616C746552
:1005B000726E617465290A453A095072696E742039
:1005C000454550524F4D2053657474696E67730AE8
:1005D0004253504143453A09436C65617220454599
:1005E00050524F4D0A000A002575002E6E6B726F37
:1005F0003A20000A002575002E737761705F6261F2
:10060000636B736C6173685F6261636B737061636A
:10061000653A20000A002575002E737761705F67C8
:10062000726176655F6573633A20000A0025750084
:100630002E6E6F5F6775693A20000A002575002EDF
:10064000737761705F72616C745F726775693A206D
:10065000000A002575002E737761705F6C616C7401
:100660005F6C6775693A20000A002575002E737764
:1006700061705F7263746C5F726775693A20000A1B
:10068000002575002E737761705F6C63746C5F6C0E
:100690006775693A20000A002575002E6361707342
:1006A0006C6F636B5F746F5F636F6E74726F6C3AC5
:1006B00020000A002575002E737761705F636F6EEE
:1006C00074726F6C5F636170736C6F636B3A200060
:1006D0000A0025303258006B65796D61705F636F79
:1006E0006E6669672E7261773A20000A00257500F0
:1006F0002E6D6F7573653A20000A002575002E6B0C
:100700006579626F6172643A20000A002575002ED7
:100710006D61747269783A20000A002575002E65B3
:100720006E61626C653A20000A0025303258006420
:10073000656275675F636F6E6669672E7261773A8F
:1007400020000A0025750064656661756C745F6C35
:10075000617965723A20003F000A6D6F7573653AE2
:10076000206F66660A000A6D6F7573653A206F6EBA
:100770000A000A6B6579626F6172643A206F66667F
:100780000A000A6B6579626F6172643A206F6E0AC3
:10079000000A6D61747269783A206F66660A000A11
:1007A0006D61747269783A206F6E0A000A6465623E
:1007B00075673A206F66660A000A64656275673A73
:1007C000206F6E0A000A0A4A756D70696E672074A0
:1007D0006F20626F6F746C6F616465722E2E2E20B5
:1007E00000433E2000436C656172696E6720454599
:1007F00050524F4D0A006565636F6E6669673A0A2D
:10080000005B735D004B6579626F61726420737485
:100810006172742E0A005B575D005B535D005B5292
:100820005D005B445D005B435D000403300000003D
:100830001403720065007600690075006E006700A1
:100840003300390000000C03670074006900700079
:10085000730000000403090409025B00030100A007
:10086000FA0904000001030101000921110100013E
:100870002240000705810308000A09040100010362
:100880000000000921110100012236000705820342
:1008900020000A09040200020300000009211101DE
:1008A000000122220007058303200001070503033E
:1008B0002000011201100100000008EDFE000001FF
:1008C00000010203010631FF0974A1010975150039
:1008D00026FF009520750881020976150026FF0085
:1008E000952075089102C005010980A10185031AB0
:1008F00081002A83001601002603009501751081EE
:1009000000C0050C0901A10185041A01002A9C02FE
:10091000160100269C02950175108100C005010991
:1009200006A101050719E029E715002501950875BD
:100930000181029501750881010507190029FF153C
:100940000026FF0095067508810005081901290594
:10095000950575019102950175039101C00011245F
:100960001FBECFEFDAE0DEBFCDBF04B603FE27C067
:100970008091DF019091E001A091E101B091E2014D
:100980008730904BA740B04BD1F41092DF0110920A
:10099000E0011092E1011092E20114BE84B7877F5A
:1009A00084BF0FB6F894A895809160008861809309
:1009B0006000109260000FBEE0E0F8E3099511E0DE
:1009C000A0E0B1E0EEE1FBE402C005900D92AA3296
:1009D000B107D9F721E0AAE2B1E001C01D92AF3D15
:1009E000B207E1F70E94CE1F0C948D250C940000F5
:1009F000FF93EF93E0912A01F0912B01309709F0DA
:100A00000995EF91FF910895FC018591803011F0D7
:100A1000EFDFFBCF0895FF27E0E230E247FF0CC095
:100A2000419597FF09C0EDE260957095809590958E
:100A3000611D711D811D911D27FF02C0219530E3AD
:100A400050E2AA27660F771F881F991FAA1FA417B5
:100A500010F0A41B63955A95A9F7AA3008F0A95F76
:100A6000A05DAF93F395611571058105910541F77F
:100A7000ED3211F4EF93F395F21718F43F93F395D9
:100A8000FBCF8F91B5DFFA95E1F70895E991F991E0
:100A90008591803021F0853219F0AADFF9CF0895D1
:100AA00020E0E89455915532C1F3503311F4689425
:100AB00055915A3348F4505390F3220F022E220FCF
:100AC000220F200D250FF4CF0EF4219589919991D5
:100AD000533619F3533729F1533559F1BC0188279F
:100AE0009927E8945C3621F48991999168945591FD
:100AF000543639F446EF7EF077FF0DC08FEF9FEF4D
:100B00000AC055374AE039F0583540E121F05236F5
:100B100042E009F00895FF93EF937DDFEF91FF919D
:100B2000B7CFFF93EF93FC0181918030B9F360DF81
:100B3000FBCFFF93EF9368DFF1CFDF93CF93CDB778
:100B4000DEB72596A3DFCF91DF91089581E0089568
:100B500081E008950C94A8051F93CF93DF9300D0F4
:100B600000D01F92CDB7DEB749835A8320914F0141
:100B700089819A81211112C0662349F00E9453177E
:100B8000182F682F89819A810E94F61603C00E944F
:100B90002617182F69817A81812F04C00E9453176C
:100BA00069817A810F900F900F900F900F90DF91D5
:100BB000CF911F910C949706FC0140815181628175
:100BC000738184810C94AC050E949E18811102C02F
:100BD0000E943E190C9439090C943C0908950C9418
:100BE000EE0581E008950C94F105CF93C82F0E9483
:100BF000EF058C2F0E94F305CF91089508950E9470
:100C00001C120E94FE052FEF84E39CE021508040DF
:100C10009040E1F700C0000087E797E79093010854
:100C2000809300080C94701A0F931F93CF93DF9357
:100C30008C010E94DC05EC01B8010E94AA05882302
:100C400009F46AC0B801CE010E94FE0A882309F4A3
:100C500063C0B801CE010E943F0B882309F45CC039
:100C6000F8018281882339F1C1308CE5D80759F029
:100C7000CE3DECE5DE07E1F0C115FCE5DF07D9F478
:100C80000E94FF0549C08091BB01C82FC095C1706B
:100C9000C0FB80F98093BB01CC2329F08EE592E064
:100CA0000E94040539C08CE492E00E94040535C01E
:100CB0000E943E1931C0C631DC4539F50E94D31778
:100CC000282FF80182814091000150910101882371
:100CD00079F02A7A91E009F490E090932C01911137
:100CE00002C069E201C065E3CA010E9477190AC027
:100CF00080912C01811102C069E201C065E3CA0143
:100D00000E9479190E941F1807C0C801DF91CF9176
:100D10001F910F910C94A605C0E08C2FDF91CF910D
:100D20001F910F91089580E090E00895089596E056
:100D3000799FF00111249AE2899FE00DF11D1124A1
:100D4000E60FF11DEE0FFF1FE450FF4F85919491C8
:100D50000895880F991FFC01E159FD4F85919491E9
:100D60000895CF93DF930E9497060E946108EC01DB
:100D7000811520E59207B8F5811530E4930708F056
:100D80001FC1803E9105D0F4803C910508F009C157
:100D9000883A910570F4853A910508F098C0813041
:100DA000910509F48AC108F43BC1049708F085C194
:100DB00037C18F3B910508F495C032C1811540E2DF
:100DC000940750F4C11581E0D80708F076C1C83EF9
:100DD000D10508F472C124C1811520E3920708F0FF
:100DE000E6C09F70E0C0811535E5930708F044C068
:100DF000811544E5940708F0FAC0C11582E5D807CB
:100E000008F5C11521E5D20708F0DDC08C2F8370ED
:100E100021E030E002C0220F331F8A95E2F73C68E0
:100E2000CE0174E0969587957A95E1F78370382B1B
:100E3000CF70C695C69580E2C89FE0011124C22BF1
:100E4000D32B3BC12C2F26952695CE018370992755
:100E5000C115D34508F0BCC040E2249F9001112485
:100E6000C1E0D0E002C0CC0FDD1F8A95E2F72C2B49
:100E70003D2BE901DC6821C1811549E59407A0F407
:100E8000C11588E5D80708F0B7C0C11526E5D20717
:100E900008F0C6C08C2F0E94F5088F71C82FD0E0D3
:100EA000DC2FCC27D06209C181153AE5930708F4FD
:100EB000A8C090568115904208F0B2C08D2F8F7156
:100EC0000E94F508DD27D0628F71D82BF6C0853AD5
:100ED000910509F4A8C0863A910509F0A7C0C2E8B7
:100EE000D0E4EBC0883A910509F4A3C0893A910592
:100EF00009F4A2C08A3A910509F4A1C08B3A910580
:100F000009F4A0C08C3A910509F49FC08B3B910570
:100F100009F49EC08C3B910509F49DC08D3A910562
:100F200009F49CC0803B910509F49BC08E3A910561
:100F300009F49AC08F3A910509F499C0813B910553
:100F400009F498C0823B910509F497C0833B910551
:100F500009F496C0843B910509F495C0853B910541
:100F600009F494C0863B910509F493C0873B910531
:100F700009F492C0883B910509F491C0893B910521
:100F800009F490C08D3B910509F48FC08E3B91050B
:100F900009F48EC08A3B910509F48DC0C0E0D4E409
:100FA0008CC0805C91090E94A906EC0186C099273B
:100FB000D3FF03C0EC01D86C80C0EC01D06C7DC0C5
:100FC000DF70D06A7AC0DC2FCC27C16FD06A75C0C1
:100FD00040E2249F90011124C1E0D0E002C0CC0F78
:100FE000DD1F8A95E2F7C22BD32BDA6866C0D82FB3
:100FF000CC27C46FD06A61C0DC2FCC27C06FD06A09
:101000005CC08F700E94F50894E0D695C7959A95BC
:10101000E1F7CF70D0E0DC2FCC27D069C82B4DC0D2
:10102000C0E0D0E04AC0C1E8D0E447C0C3E8D0E4A3
:1010300044C0C2EED4E441C0C9EED4E43EC0CAEE1E
:10104000D4E43BC0C5EBD4E438C0C6EBD4E435C02F
:10105000C3EBD4E432C0C4EBD4E42FC0C7EBD4E478
:101060002CC0CCECD4E429C0CDECD4E426C0C3E839
:10107000D5E423C0CAE8D5E420C0C2E9D5E41DC048
:10108000C4E9D5E41AC0C1E2D6E417C0C3E2D6E48D
:1010900014C0C4E2D6E411C0C5E2D6E40EC0C6E274
:1010A000D6E40BC0C7E2D6E408C0CFE6D4E405C05E
:1010B000C0E7D4E402C0CAE2D6E4CE01DF91CF910A
:1010C00008958238910569F1B0F48133910509F4EE
:1010D0006DC048F48932910509F463C08A329105E4
:1010E00009F469C008958533910509F455C0893321
:1010F0009105B9F00895833E910569F138F4803E79
:101100009105B1F0823E910509F10895863E910561
:10111000A9F1873E9105B9F1843E910509F064C0BB
:1011200023C02091D00120FD4FC021FD4DC0089566
:101130008091D00180FD44C08091D10180FF44C0E6
:101140008091D00184FD42C083EE4DC08091D001DA
:1011500082FF38C0F5CF8091D00182FD33C08091ED
:10116000D10180FD31C0ECCF8091D10181FF32C02F
:101170008091D00184FD2AC087EE35C08091D001D6
:1011800083FF26C0F5CF8091D00183FD21C08091DF
:10119000D10181FD1FC0ECCF8091D00185FD1CC025
:1011A0001DC08091D00185FD19C016C08091D0016D
:1011B00086FD16C017C08091D00186FD13C010C0F7
:1011C00089E311C082EE0FC080EE0DC080E00BC03D
:1011D00086EE09C084EE07C089E205C085E303C03E
:1011E0008AE201C081E390E008959091D00192FFDE
:1011F0000DC0282F2871283019F4877F846006C01D
:10120000282F2471243011F48B7F886093FF0DC048
:10121000282F2871283119F4877E846106C0282F71
:101220002471243111F48B7E88612091D10120FF3B
:101230000DC0382F3871383019F4877F816006C0AF
:10124000382F3171313011F48E7F886021FF0DC04D
:10125000282F2871283119F4877E816106C0282F34
:101260002171213111F48E7E886194FD877E08956D
:1012700008950C94380908950C943B09E82FF0E088
:10128000E35DFE4F80810895CF92DF92EF92FF924F
:101290000F931F93CF93DF938EE792E00E94040594
:1012A0008DE2E82E81E0F82EC0E0D0E099E7C92E6B
:1012B00092E0D92E01E712E0DF93CF93DF92CF9235
:1012C0000E949D0586E792E00E940405F701819146
:1012D0007F010E9488181F928F931F930F930E9483
:1012E0009D058FE692E00E94040521968DB79EB77A
:1012F00008960FB6F8949EBF0FBE8DBFC730D105BC
:10130000D9F6DF91CF911F910F91FF90EF90DF9071
:10131000CF900895A3E1B1E041E050E027E02A0F2B
:101320008D91E82FE295EF70F0E031A18F70BA0156
:1013300002C0660F771F8A95E2F7CB01962F909532
:10134000932391A392A1892B82A32A13E9CFADE025
:10135000B1E041E050E026E02A0F8D91E82FE295C0
:10136000EF70F0E031A18F70BA0102C0660F771FF5
:101370008A95E2F7CB01962F9095932391A392A1A2
:10138000892B82A32A13E9CFADE2B1E0E4E3F1E0D7
:1013900087E08E0F11921D928E13FCCF87E00E9482
:1013A0005A0A0C94E4056F927F928F929F92AF92AB
:1013B000BF92CF92DF92EF92FF920F931F93CF9342
:1013C000DF9363E171E0A4E3B1E0712C01E010E090
:1013D000D7E06D2E6A0E7D019C901C92EB018991E5
:1013E000BE01E82FE295EF70F0E091A18F70A801A7
:1013F00001C0440F8A95EAF7892F842B81A392A11B
:10140000842F8095982392A3D0EADA95F1F7CDE066
:10141000CC2EC1E0DC2E20E030E0E60199916E0197
:10142000A92EA2945FE0A522B12CE501A8A08C9082
:10143000B12C9F7002C0B594A7949A95E2F7A0FCD6
:1014400007C0902F022E01C0990F0A94EAF701C03D
:1014500090E098299C932F5F3F4F26303105E9F6A5
:1014600091A1892381A382A1482B42A3119681E0F7
:10147000F7019081991201C080E0782A6A12ABCFFF
:10148000272D47E06DE271E084E391E00E945B0A62
:101490000E94EC05872DDF91CF911F910F91FF9056
:1014A000EF90DF90CF90BF90AF909F908F907F9004
:1014B0006F9008950895FF920F931F93CF93DF933A
:1014C0008C01F62ED72FC42F222349F081E0809380
:1014D0003D010E94081A90933C0180933B0180914A
:1014E0003D018823C1F080913B0190913C010E9415
:1014F000201A069780F0EF2DFD2FD8014C2F50E0D9
:10150000CD01801B910B841795071CF48D9181935D
:10151000F7CF10923D01DF91CF911F910F91FF9076
:1015200008950F931F93CF93DF93C62FD42F022FCD
:10153000FC0182818823C9F0609340010E94081A4F
:1015400090933F0180933E0180E28C0F883008F039
:1015500050C0C77081E001C0880FCA95EAF7DF91DB
:10156000CF911F910F910C94B10F10914001161360
:1015700030C080913E0190913F010E94201A883C2A
:10158000910538F5C0E2CD0F1D17B9F080E2810F4B
:10159000883040F4177081E001C0880F1A95EAF78F
:1015A0000E94B80FC83048F481E09D2F977001C0A9
:1015B000880F9A95EAF70E94B10F802F0E949E0F24
:1015C000C830B8F4D77081E001C0880FDA95EAF727
:1015D0000AC080E28C0F883060F4C77081E001C0DF
:1015E000880FCA95EAF7DF91CF911F910F910C9464
:1015F000B80FDF91CF911F910F9108959C01CB01FE
:10160000233F4CE53407F9F078F4283DFCE53F072B
:10161000B9F0293D4CE5340711F1273D3C4531F542
:1016200026E241EE61EE1EC0253FFCE53F0799F042
:1016300070F0263F3C45D1F427E245EE66EE12C03D
:1016400027E245EE0EC026E241EE60EE0BC027E237
:1016500045EE64EE07C026E241EE62EE03C028E2EA
:1016600041E065EE0E94910A80E00895FC018281CC
:10167000882319F010924001089581E00895CF93D6
:10168000DF93EC01FB018281882309F41FC1C23082
:10169000FCE5DF0708F41BC1C6319CE5D90738F02B
:1016A0009E012A5F3C452930310508F010C10E9497
:1016B000B1189093D1018093D001C031ECE5DE07E1
:1016C00009F4C3C008F041C0C8308CE5D80709F45C
:1016D0009AC0F0F4C430ECE5DE0709F487C068F482
:1016E000C2308CE5D80709F477C0C330DC4509F077
:1016F000E3C08091D001826076C0C630ECE5DE07A1
:1017000009F46EC008F07BC08091D00188606BC086
:10171000CC308CE5D80709F485C068F4CA30ECE514
:10172000DE0709F474C008F079C00E941C12809191
:10173000D001806858C0CE308CE5D80709F476C057
:1017400008F07FC08091D0018BC0CB3FECE5DE0775
:1017500009F44FC018F5C3318CE5D80709F47DC0F2
:1017600078F4C131ECE5DE0709F473C0C231DC4521
:1017700009F0A2C00E941C128091D0018F7733C063
:10178000C5318CE5D80709F472C008F486C0CA3F99
:10179000DC4509F091C08091D1013EC0CF3FFCE50E
:1017A000DF0709F45FC058F4CD3F9CE5D90709F481
:1017B00044C008F43FC08091D10182602DC0C13087
:1017C000FDE5DF0709F475C008F45DC0C230DD45F2
:1017D00009F072C080E06EC08091D001816003C0CA
:1017E0008091D00180618093D00166C08091D0014A
:1017F00011C08091D10182608093D1015DC0809140
:10180000D0018062F0CF8091D0018064ECCF8091D4
:10181000D00188608460E7CF8160EECF8091D001F5
:101820008E7FE1CF8091D0018D7FDDCF8091D0017F
:10183000877FD9CF8091D10118C08091D1018D7F50
:10184000DBCF8091D0018F7ECECF8091D0018F7D74
:10185000CACF8091D0018F7BC6CF8091D001877F86
:101860008B7FC1CF8091D1018D7F8E7FC5CF80913D
:10187000D00182FB222720F991E0922790FB82F988
:1018800090FB83F9B0CF8091D101982F9095917002
:101890008E7F892B90FB81F9AFCF0E941C12809123
:1018A000D00187FB222720F991E0922790FB87F94E
:1018B0009ACF81E00E9440198091D0019091D1018E
:1018C0000E94C2180E941C1280E001C081E0DF91DA
:1018D000CF91089590934601809345010895E0913A
:1018E0004501F0914601309721F00190F081E02D03
:1018F000099480E00895EF92FF920F931F93CF9386
:10190000DF93E0914501F09146013097B1F18C01F0
:101910000280F381E02D09958091BB0182FF2DC0EB
:1019200080FF04C085E992E00E940405E80118E008
:101930008FE8E82E82E0F82E8091BB0180FF0BC07B
:1019400088811F928F93FF92EF920E949D050F90C6
:101950000F900F900F90115021961111EDCF8091A3
:10196000BB0180FF0AC08DE892E0DF91CF911F910B
:101970000F91FF90EF900C940405DF91CF911F9190
:101980000F91FF90EF900895209143013091440111
:101990008217930771F09093440180934301E09183
:1019A0004501F0914601309721F00680F781E02D46
:1019B00009940895209141013091420182179307C3
:1019C00071F09093420180934101E0914501F091C3
:1019D0004601309721F00084F185E02D09940895A7
:1019E00085B7806885BF85B7806885BF08950895ED
:1019F00008950C94F80C08950C94FB0C0E94F00CC4
:101A00000E94F70C0C94F90C81E008950E94FF19D4
:101A10000E948A090E94811A0C94FC0CCF93C82F53
:101A20008091BB0182FF1EC080FF04C08EEA92E05D
:101A30000E9404058091BB0180FF0CC01F92CF93D0
:101A400089EA92E09F938F930E949D050F900F90DB
:101A50000F900F908091BB0180FF04C087EA92E055
:101A60000E9404058C2FCF910C94F505CF92DF9244
:101A7000EF92FF920F931F93CF93DF93CDB7DEB713
:101A80002B970FB6F894DEBF0FBECDBF0E94D309CF
:101A90000E94040D811111C08FEF89838A831B82FC
:101AA0000E94081A8160782F9D838C8349815A8116
:101AB0006B818D810E94DC0D56C088E4C82E81E0C8
:101AC000D82E00E010E0E02E802F0E943E09F601A3
:101AD00041916F01F42EF82631F40F5F1F4F07304C
:101AE000110589F7D9CF9091BB0191FF04C08B8775
:101AF0000E9444098B8520E030E04F2D50E0922F6A
:101B0000BA01022E02C0759567950A94E2F760FF4C
:101B100024C02E83EF8221E030E0690102C0CC0CAA
:101B2000DD1C9A95E2F790E08C219D21892B09F428
:101B300020E028870E94081A8160782F9A87898779
:101B40004E815F8168858A850E94DC0DF801E85B23
:101B5000FE4F8081C826C08206C02F5F3F4F2630CF
:101B6000310569F6BACF109147010E946F0C181722
:101B7000A1F00E946F0C809347012B960FB6F8944A
:101B8000DEBF0FBECDBFDF91CF911F910F91FF90B0
:101B9000EF90DF90CF900C940E0D2B960FB6F8942B
:101BA000DEBF0FBECDBFDF91CF911F910F91FF9090
:101BB000EF90DF90CF900895CF93DF93CDB7DEB74E
:101BC0002B970FB6F894DEBF0FBECDBF4F8358875B
:101BD00069877A878B87DE01119686E0FD01119275
:101BE0008A95E9F785E0FE01379601900D928A9576
:101BF000E1F749815A816B817C818D819E810E94B0
:101C0000C6142B960FB6F894DEBF0FBECDBFDF9182
:101C1000CF910895FC01808191810E9494170895CD
:101C2000CF93DF931F92CDB7DEB7882309F423C18A
:101C3000682F8238C1F40E946F0C81FD1CC169E3DA
:101C400080910001909101010E9477190E941F1854
:101C50002FEF81EE94E0215080409040E1F700C0EA
:101C6000000069E319C0833811F50E946F0C80FDF4
:101C700002C163E580910001909101010E947719F2
:101C80000E941F182FEF81EE94E021508040904079
:101C9000E1F700C0000063E580910001909101012F
:101CA0000E9479190F90DF91CF910C941F188438FE
:101CB000C1F40E946F0C82FDDEC067E480910001D8
:101CC000909101010E9477190E941F182FEF81EE59
:101CD00094E0215080409040E1F700C0000067E4AC
:101CE000DBCF8CEF860F813A70F4862F69830E94D8
:101CF000461D69818111BFC0809100019091010151
:101D00000E947719CFCF80E2860F883048F4677041
:101D100081E001C0880F6A95EAF70E94D617C2CF0A
:101D20008BE5860F833088F4653A29F0663A31F006
:101D300083E890E005C081E890E002C082E890E08E
:101D40000F90DF91CF910C94C40C88E5860F8731FA
:101D500008F091C0683A09F445C0693A09F445C0F1
:101D60006A3A09F445C06B3A09F445C06C3A09F483
:101D700045C06B3B09F445C06C3B09F445C06D3A66
:101D800009F445C0603B09F445C06E3A09F445C00A
:101D90006F3A09F445C0613B09F445C0623B09F460
:101DA00045C0633B09F445C0643B09F445C0653B4D
:101DB00009F445C0663B09F445C0673B09F445C0DA
:101DC000683B09F445C0693B09F445C06D3B09F423
:101DD00045C06E3B09F445C06A3B09F445C080E04C
:101DE00090E044C082EE90E041C089EE90E03EC0B9
:101DF0008AEE90E03BC085EB90E038C086EB90E047
:101E000035C083EB90E032C084EB90E02FC087EBCD
:101E100090E02CC08CEC90E029C08DEC90E026C0C6
:101E200083E891E023C08AE891E020C082E991E054
:101E30001DC084E991E01AC081E292E017C083E2FC
:101E400092E014C084E292E011C085E292E00EC0FC
:101E500086E292E00BC087E292E008C08FE690E055
:101E600005C080E790E002C08AE292E00F90DF9127
:101E7000CF910C94DA0C0F90DF91CF9108958823C5
:101E800009F45BC0682F823879F40E946F0C81FFDF
:101E900054C069E380910001909101010E9477197B
:101EA0000E941F1869E310C08338B1F40E946F0CC0
:101EB00080FF43C063E580910001909101010E9481
:101EC00077190E941F1863E580910001909101012C
:101ED0000E9479190C941F18843879F40E946F0CB1
:101EE00082FF2BC067E480910001909101010E9464
:101EF00077190E941F1867E4E7CF8CEF860F813AAD
:101F000018F380E2860F883048F4677081E001C0E2
:101F1000880F6A95EAF70E94DC17DCCF8BE5860F05
:101F2000833020F480E090E00C94C40C685A673150
:101F300020F480E090E00C94DA0C0895CF93C82F41
:101F40000E94100EC93349F42FEF87EE93E0215021
:101F500080409040E1F700C000008C2FCF910C949E
:101F60003F0F882321F00E94D6170C941F18089564
:101F7000882321F00E94DC170C941F180895BF924B
:101F8000CF92DF92EF92FF920F931F93CF93DF9345
:101F90007C01062FC72FFC01158112951F70D2817D
:101FA000D1110E94F3170E94CC17882379F0DD230A
:101FB00069F080E2800F883048F082E00E946A1861
:101FC0000E94CC1791E0B82EB92601C0B12CCC2EBE
:101FD000C2948FE0C822D12CF601EA5AFF4F0C942C
:101FE00045258C2F807FCF70882311F0C295C07F4C
:101FF000DD2399F0CC2309F48CC180E2800F883076
:1020000010F0011104C08C2F0E94D61703C08C2F32
:102010000E94E6170E941F187CC1802F0E943F0F6C
:10202000CC2309F49BC180E2800F883010F00111AD
:1020300004C08C2F0E94DC1703C08C2F0E94EC1769
:102040000E941F188BC18C2F807FCF70803211F0BF
:10205000C295C07F002319F00130C9F022C0DD23F2
:1020600071F0112341F0113031F40E9406188C2BCD
:102070000E940C1873C10E9406188C2B1DC01123DE
:1020800019F0113009F46AC10E94151825C0DD232A
:1020900021F0163008F062C10EC0153008F05EC1A4
:1020A0001BC0DD2361F0112331F0F701858180FF32
:1020B00030C18F7085838C2F0E94B10F4FC11123C7
:1020C00059F0093309F036C1FFEF27EE83E0F150F4
:1020D00020408040E1F72CC18C2F0E94B80F3EC1F8
:1020E0008C2F86958695837090E0009719F0019764
:1020F00061F034C1DD2321F0802F9C2F937002C04A
:1021000080E090E00E94C40C34C1DD2321F0802FD8
:102110009C2F937002C080E090E00E94DA0C29C1ED
:102120008C2F837009F049C0D1111FC1402F4295F7
:1021300046954770440F440F602F6F70862F90E0D4
:10214000A0E0B0E0042E04C0880F991FAA1FBB1F97
:102150000A94D2F704FF10C00FE010E020E030E056
:1021600004C0000F111F221F331F4A95D2F700959C
:1021700010952095309503C000E010E09801C695B9
:10218000C695C370D0E0BC01CD01602B712B822BB2
:10219000932BC230D10559F0C330D10559F02197A6
:1021A00019F00E940B16E1C00E94F915DEC00E94D2
:1021B0001D16DBC00E94F715D8C0DD2319F08C2F47
:1021C000817001C08695882309F4CFC0402F4295C5
:1021D00046954770440F440F602F6F70862F90E034
:1021E000A0E0B0E0042E04C0880F991FAA1FBB1FF7
:1021F0000A94D2F704FF10C00FE010E020E030E0B6
:1022000004C0000F111F221F331F4A95D2F70095FB
:1022100010952095309503C000E010E09801C69518
:10222000C695C370D0E0BC01CD01602B712B822B11
:10223000932BC230D10559F0C330D10559F0219705
:1022400019F00E94D11691C00E94BF168EC00E9444
:10225000E3168BC00E94321688C0CF70DD2339F0A0
:102260008C2F0E945816802F0E94B10F7EC0802FA5
:102270000E94B80F8C2F0E94791677C0023F01F19F
:1022800028F4003F41F0013FA1F03FC0033FF9F0C7
:10229000043F39F13AC0DD2341F0153008F05EC04B
:1022A0008C2F8F710E949E1659C0163008F056C0B0
:1022B000F7CFDD2339F08C2F8F710E9458164EC056
:1022C000DD23C9F38C2F8F710E94791647C0DD235F
:1022D00029F08C2F8F710E94431640C00E943E1639
:1022E0003DC0DD2349F0CF718C2F0E94581663E06A
:1022F0008C2F0E94551832C081E00E946A1812305B
:1023000068F182E00E946A1829C0DD2331F01123B0
:1023100091F2802F0E94100E21C0112399F20933EF
:1023200049F49FEFE7EEF3E09150E040F040E1F731
:1023300000C00000802F0E943F0F10C04C2F4F7034
:10234000602FC7010E9493060E946A1512C04C2F8D
:102350004F70602FC7010E9496060BC028E0C21A7A
:10236000D10884E0C816D10420F40E946F0C0E94AA
:10237000F505BB20D1F00E94C81780FD16C0F701FB
:1023800012820E94C2170E945816C7010E94DF11D4
:102390000E94C217DF91CF911F910F91FF90EF9094
:1023A000DF90CF90BF900C947916DF91CF911F9161
:1023B0000F91FF90EF90DF90CF90BF9008950F9313
:1023C0001F93CF93DF93EC01888199812B813C810E
:1023D000232BB9F09F3F11F48F3F99F0CE010E945B
:1023E0001406882371F0688179818A810E949F1781
:1023F0008C010E94F5160E94F615B801CE010E94CC
:10240000BF0FDF91CF911F910F9108950E94F31795
:102410000E9403180E941F1880E090E00E94C40CE4
:1024200080E090E00C94DA0C809100019091010121
:102430000E947B190C9406120E94E3170C9414124C
:10244000E92FE295EF70F0E03297EE30F105B0F44D
:10245000EA59FF4F0C944525803F91F018F4883ECF
:1024600068F40EC0843F51F40BC0883E48F0813FB1
:1024700029F406C093FB882780F9089580E0089529
:1024800081E008950E9494170E9420120895CF932E
:10249000DF9300D000D01F92CDB7DEB70F900F9022
:1024A0000F900F900F90DF91CF910895CF93DF930E
:1024B00000D000D000D0CDB7DEB726960FB6F89486
:1024C000DEBF0FBECDBFDF91CF9108951F93CF9395
:1024D000DF93C091500116E080915101C81799F027
:1024E000D0E01C9FF0011D9FF00D1124EE5AFE4F0D
:1024F0004081518162817381848195810E9456124D
:102500002196C770E9CFDF91CF911F910895409137
:1025100082015091830160918401709185018091C5
:102520008601909187010C945612809187018295C3
:102530008F7009F054C080918401882309F44FC042
:1025400080915001A09151016091820170918301AD
:102550004091850150918601B6E08A1709F43FC089
:1025600090E041155105C1F17F3F11F46F3FA1F19A
:10257000B89FF001B99FF00D1124EE5AFE4F218152
:1025800072132AC02081621327C02281211124C026
:10259000238134812417350710F421503109241B7D
:1025A000350B283C3105C0F4209187012F70206144
:1025B0002093870126E0289FF001299FF00D112428
:1025C000E95AFE4F80818F708061808382E891E0BC
:1025D0000E94DF110C94661201968770BECF089599
:1025E000CF92DF92EF92FF920F931F93CF93DF93DF
:1025F000CDB7DEB762970FB6F894DEBF0FBECDBF82
:102600008C0185E0F801DE011D9601900D928A95FE
:10261000E1F7D8014C9111965C91119712966C914B
:1026200012971396CD90DC9014973091820170919F
:1026300083018091850190918601009709F46BC117
:102640007F3F19F43F3F09F466C1E0908401EE201A
:1026500009F4C0C020918701C816D90628F0F601F8
:10266000E81BF90BCF0104C0809590958C0D9D1D42
:10267000FF24F394883C910578F0F12C207F09F039
:10268000C6C07C2DD98AC88A89890E94471282E8EF
:1026900091E00E94DF11B1C0822F807F09F046C017
:1026A000751314C0341312C0611110C02F70206153
:1026B000209387010E94871282E891E00E94DF1137
:1026C00080918701D80115968C932EC0CD2819F1E1
:1026D0005F3F11F44F3FF9F0F62E61111CC080915D
:1026E00050012091510136E0821709F45AC090E060
:1026F000389FF001399FF00D1124EE5AFE4F718181
:10270000571306C07081471303C07281711103C053
:1027100001968770E9CFF62E662309F427C18091D0
:102720008701816080938701F12C20C1751308C057
:10273000341306C0611104C080918701D801C3C061
:102740004D875E878D859E856A8B0E9442126A89BD
:102750008823E1F16623D1F120918701822F8295B0
:102760008F7090E0029774F08091820190918301C4
:1027700098878F831986DB86CA862C87CE010796B9
:102780000E94DF1186E0F801A2E8B1E001900D920D
:102790008A95E1F70E9495120E948712FF24F39414
:1027A000E5C04D875E878D859E850E949417292FF1
:1027B00022952F7030E0223031050CF0CBC09F7095
:1027C00009F0C5C0805E883008F4D0C0C8010E94FE
:1027D000DF11E4CFC816D90608F453C0F601E81B90
:1027E000F90BCF01883C910508F450C0F12C7C2DE9
:1027F000D98AC88A89890E944712E2E8F1E086E016
:10280000DF011D928A95E9F70E948712AFC0751308
:1028100014C0341312C0611110C080918701F801F7
:102820008583C8010E94DF1186E0E2E8F1E0DF0164
:102830001D928A95E9F7FE2C99C04D875E878D859C
:102840009E856A8B0E9442126A89882309F4BECF52
:10285000662309F4BBCF20918701822F82958F7068
:1028600090E002970CF48ECF8091820190918301C9
:102870009A8389831B82DD82CC822E83CE010196CE
:102880007FCF809590958C0D9D1DACCFF62E662345
:1028900009F49CCF75132EC034132CC020918701EE
:1028A00020FD1FC0822F82958F70D9F0D801159618
:1028B0002C9315978F3049F08F5F982F9295907FCA
:1028C000822F8F70892B15968C93C8010E94DF117F
:1028D00086E0F801A2E8B1E001900D928A95E1F757
:1028E00093CF86E0F801A2E8B1E001900D928A95BD
:1028F000E1F73CC04D875E878D859E850E94421220
:10290000811140CF80918701816080938701C80148
:102910000E94DF112BC0662309F458CF4D875E87D4
:102920008D859E850E944212F82E882309F44ECF91
:1029300086E0F801A2E8B1E001900D928A95E1F7F6
:1029400082E891E00E940A0E0E9495125DCF8111EB
:1029500039CF0CC0243031050CF038CF9F7009F40A
:1029600031CFF8019581907F09F02CCF8F2D6296A1
:102970000FB6F894DEBF0FBECDBFDF91CF911F9190
:102980000F91FF90EF90DF90CF9008951F93CF931A
:10299000DF93CDB7DEB72C970FB6F894DEBF0FBE2E
:1029A000CDBF4F83588769877A878B879C87CE01F5
:1029B00007960E94F012882369F08F8198852A85F6
:1029C0003B85232BF1F19F3F09F063C08F3F09F056
:1029D00060C037C086E0FE013796DE011196019097
:1029E0000D928A95E1F76F817885EA85FB853097AE
:1029F00041F17F3F11F46F3F21F12091510130E00F
:102A0000C9010196877099274091500150E08417C1
:102A1000950709F447C069837A83FD83EC8396E0C8
:102A2000929FD001939FB00D1124AE5ABE4FFE016C
:102A3000319601900D929A95E1F7809351010E9491
:102A4000661216E080915001909151018917C1F1F1
:102A5000189FC00111248E5A9E4F0E94F0128823A5
:102A600079F1E09150011E9FF0011124EE5AFE4FC2
:102A70004081518162817381848195810E945612C7
:102A80008091500190E001968770992780935001C2
:102A9000D9CF4F81588569857A858B859C850E9421
:102AA0005612CFCF0E941C12109251011092500169
:102AB000E2E8F1E086E0DF011D928A95E9F7C1CFF7
:102AC0002C960FB6F894DEBF0FBECDBFDF91CF912D
:102AD0001F910895EF92FF920F931F93CF93DF936F
:102AE0008C01892B09F46CC0F12CEE24E394E801ED
:102AF0002196F8018491843740F4843008F051C065
:102B0000813081F0823019F15BC0853709F444C00F
:102B1000A8F19CE7980F903708F052C08F770E9479
:102B20003F0F41C00E5F1F4FFE01C49180E28C0F2A
:102B3000883048F4C7708E2D01C0880FCA95EAF717
:102B40000E94F61714C08C2F0E94100E2DC00E5F2D
:102B50001F4FFE01C49180E28C0F883058F4C7707B
:102B60008E2D01C0880FCA95EAF70E94FC170E94BB
:102B70001F181AC08C2F0E943F0F16C00E5F1F4FE8
:102B8000FE01C491CC2381F08FE99FE00197F1F71A
:102B900000C00000C150F6CF0E5F1F4FFE01F49041
:102BA00003C00E94100E8E018F2D882309F49FCF41
:102BB000EFE9FFE03197F1F700C000008150F5CF59
:102BC000DF91CF911F910F91FF90EF90089508959D
:102BD0000C94E7150E94E8156093AA017093AB016D
:102BE0008093AC019093AD010C94061208950C945F
:102BF000EA150F931F930091AA011091AB01209148
:102C0000AC013091AD01602B712B822B932B1F9166
:102C10000F910C94EA150F931F930091AA01109144
:102C2000AB012091AC013091AD016023712382236F
:102C300093231F910F910C94EA150F931F9300910A
:102C4000AA011091AB012091AC013091AD01602738
:102C50007127822793271F910F910C94EA150895ED
:102C60000C942F160E9430166093A6017093A70152
:102C70008093A8019093A9010C94061260E070E083
:102C8000CB010C9432160F931F9341E050E060E0AB
:102C900070E08A019B0104C0000F111F221F331F27
:102CA0008A95D2F7C901B8011F910F910C94321681
:102CB0000F931F9341E050E060E070E004C0440FC8
:102CC000551F661F771F8A95D2F78091A6019091B4
:102CD000A701A091A801B091A9018A019B01082B2D
:102CE000192B2A2B3B2BC901B8011F910F910C9472
:102CF00032160F931F9341E050E060E070E004C093
:102D0000440F551F661F771F8A95D2F7409550953F
:102D1000609570958091A6019091A701A091A8015E
:102D2000B091A9018A019B01082319232A233B237F
:102D3000C901B8011F910F910C9432160F931F9384
:102D400041E050E060E070E004C0440F551F661F92
:102D5000771F8A95D2F78091A6019091A701A09143
:102D6000A801B091A9018A019B01082719272A27E8
:102D70003B27C901B8011F910F910C9432160F9394
:102D80001F930091A6011091A7012091A8013091F5
:102D9000A901602B712B822B932B1F910F910C9407
:102DA00032160F931F930091A6011091A701209155
:102DB000A8013091A90160237123822393231F91DD
:102DC0000F910C9432160F931F930091A60110914E
:102DD000A7012091A8013091A901602771278227BE
:102DE00093271F910F910C9432160895292F220FCB
:102DF000920F990F890FA82FA695A695A695877073
:102E000051E001C0550F8A95EAF785E0A89FD001EF
:102E1000112420E030E070E0F901EA0FFB1FE857D1
:102E2000FE4F4081CB01022E02C0969587950A94F1
:102E3000E2F78170992781958427852384278083F1
:102E40002F5F3F4F2530310539F70895292F220F85
:102E5000920F990F890F682F669566956695982F42
:102E6000977085E0689FB001112440E050E080E059
:102E7000FA01E60FF71FE857FE4F208130E0092ED8
:102E800002C0369527950A94E2F721703327042E65
:102E900001C0220F0A94EAF7822B4F5F5F4F453043
:102EA000510531F70895BF92CF92DF92EF92FF92D2
:102EB0000F931F93CF93DF938C01C090AA01D09002
:102EC000AB01E090AC01F090AD018091A601909132
:102ED000A701A091A801B091A901C82AD92AEA2A7C
:102EE000FB2ACFE1D0E0D701C6010C2E04C0B69575
:102EF000A795979587950A94D2F780FF07C0BC2EB7
:102F0000B8018C2F0E94B106019719F4219758F748
:102F1000B12C8B2DDF91CF911F910F91FF90EF90EE
:102F2000DF90CF90BF900895CF93DF93EC010E9484
:102F30005317BE010E94B106DF91CF9108951F93F0
:102F4000CF93DF93EB0190914F01992321F0CB01B7
:102F50000E94941713C0882349F0CB010E94531795
:102F6000182F682FCE010E94F61604C0CB010E94D4
:102F70002617182FBE01812F0E94B106DF91CF9135
:102F80001F9108958091AE01859585958595089549
:102F90008091AE01877008959091AE01977081E0A5
:102FA00009F480E008958091BA0108959091BA01E2
:102FB000892B8093BA01089580959091BA01892355
:102FC0008093BA0108951092BA0108959091B901C1
:102FD000892B8093B901089580959091B901892337
:102FE0008093B90108951092B90108959091B801A4
:102FF000892B8093B801089580959091B801892319
:103000008093B80108951092B80108958091AF019E
:10301000089508950C9409189091AF01981721F024
:103020008093AF010C940A1808958091AF01882312
:1030300029F01092AF0180E00C940A180895E091F5
:103040000001F09101018091BA018083E0910001BB
:10305000F091010190818091B901892B8083E091E9
:103060000001F091010190818091B801892B80834A
:103070008091AF01882381F0E0910001F09101017E
:103080009081892B808380910001909101010E94A1
:10309000451981110E94151880910001909101013C
:1030A0000C947B0C08950C94521898E0899F900121
:1030B0001124262B2093AE010E9458168091AE0158
:1030C0008595859585950C9453181092AE0180E0F6
:1030D0000C9453182091AE01809582238093AE0109
:1030E000982F977079F430E0482F082E000C550B7C
:1030F0002417350739F08595859585950E947916B1
:103100000C946518089590932B0180932A010895DB
:103110008295982F9C7C392F36953695282F2373CE
:1031200044E0249FC0011124932F982B292F2A7A41
:103130002695892F8575880F822B089580E090E071
:103140000E94532521E08C3E9E4F09F020E0822F03
:10315000089582E090E00C944B2583E090E00C947D
:103160004B25CF9384E090E00E944B25C82F81E24D
:1031700090E00E944B252C2F30E0A901582BCA016A
:10318000CF910895CF93C92F682F84E090E00E94DB
:1031900059256C2F81E290E0CF910C945925AB0119
:1031A000BC018FE090E00C946B25AB01BC0183E186
:1031B00090E00C946B2560E070E0CB010C94D51886
:1031C00060E070E0CB010E94CF180C94DB186CEE2D
:1031D0007EEF80E090E00E94772560E082E090E062
:1031E0000E94592560E083E090E00E9459251092EA
:1031F000AA011092AB011092AC011092AD0160E0F7
:1032000084E090E00E94592560E081E290E00E9415
:10321000592560E085E090E00E94592560E086E055
:1032200090E00E9459256FEF87E090E00E945925B9
:1032300040E050E0BA0188E090E00E946B2560E039
:103240008DE090E00E94592540E050E0BA0188E10D
:1032500090E00E946B2560E087E190E00E94592594
:1032600040E050E0BA018CE190E00E946B2560E004
:1032700080E290E00E9459250C94E0180C94E71825
:10328000682F8EE090E00C945925FC01329697E06F
:1032900080E0915029F021912223D9F38F5FF9CF5B
:1032A00008959C01FC0132969FEF80E04191461702
:1032B00089F09F3F19F4411101C0982F8F5F86302C
:1032C000A9F79F3F39F0F901E90FF11D97FDFA9534
:1032D000628308950895FC01329608962081261392
:1032E00001C010823196E817F907C1F708950C94D0
:1032F00051190C946B19029626E0FC0111922A9543
:10330000E9F7089508950C9482190E948319809119
:10331000D601843049F11092BC0120E488E190E0AC
:103320000FB6F894A895809360000FBE20936000BC
:1033300080E00E94F5050E94831983B7817F846035
:1033400083BF83B7816083BF7894889583B78E7F6E
:1033500083BF0FB6F894A895809160008861809330
:103360006000109260000FBE089508950895CF93F5
:103370000E94B5190E94D3090E94B619C0E08C2F93
:103380000E943E09811104C0CF5FC730C1F701C060
:1033900081E0CF91089508950C94CB190E941C12DE
:1033A0000E946F0C0E94F5050C94CC191F920F928D
:1033B0000FB60F9211248F939F93AF93BF93809179
:1033C000BC01811113C08091CC019091CD01A091DD
:1033D000CE01B091CF014196A11DB11D8093CC01CA
:1033E0009093CD01A093CE01B093CF01BF91AF9147
:1033F0009F918F910F900FBE0F901F90189582E0B4
:1034000084BD93E095BD9AEF97BD80936E000895BB
:103410002FB7F8948091CC019091CD01A091CE016D
:10342000B091CF012FBF08952FB7F8946091CC01D0
:103430007091CD018091CE019091CF012FBF089561
:10344000CF92DF92EF92FF920F931F932FB7F894D2
:103450004091CC015091CD016091CE017091CF018E
:103460002FBF6A017B01EE24FF248C0120E030E0B5
:10347000C016D106E206F30610F4415051099A0134
:10348000281B390BC9011F910F91FF90EF90DF901E
:10349000CF90089578941F920F920FB60F92112437
:1034A0008F939F93AF93BF938091CC019091CD0167
:1034B000A091CE01B091CF010196A11DB11D8093C5
:1034C000CC019093CD01A093CE01B093CF01BF91D9
:1034D000AF919F918F910F900FBE0F901F901895F5
:1034E00087E797E790930108809300089AE088E1C6
:1034F0000FB6F894A895809360000FBE909360007B
:10350000FFCF0E949E18811102C00E943E190E94A6
:10351000A9188093BB010E94B1189093D1018093A8
:10352000D0010E94AD18682F70E080E090E00C940C
:10353000F715CF93C82F1F928F9387EC92E09F933C
:103540008F930E949D0581E090E0A0E0B0E0BC0177
:10355000CD0104C0660F771F881F991FCA95D2F747
:103560000E94F7150F900F900F900F90CF910C9431
:103570001C12CF93DF938B3109F4F9C108F08FC18E
:103580008B3009F4B2C108F065C1863009F4B0C1CE
:1035900020F4853009F4BEC16CC2873009F4CCC177
:1035A000883009F066C286EF97E00E94040587E440
:1035B00097E00E9404050E94AD181F928F9384E447
:1035C00097E09F938F930E949D0582E497E00E946D
:1035D00004050E94A918C82F8FE297E00E940405F5
:1035E0001F92CF938AE297E09F938F930E949D054D
:1035F00088E297E00E9404058EE197E00E940405AE
:103600008C2F81701F928F938BE197E09F938F9304
:103610000E949D0589E197E00E9404058FE097E0F4
:103620000E940405C1FB882780F91F928F938CE0CC
:1036300097E09F938F930E949D058AE097E00E94F8
:1036400004058EEF96E00E940405C2FB882780F9EE
:103650001F928F938BEF96E09F938F930E949D050F
:1036600089EF96E00E94040580EF96E00E94040531
:10367000C3FBCC27C0F91F92CF938DEE96E09F93AA
:103680008F930E949D058BEE96E00E9404050E9498
:10369000B118EC0187ED96E00E940405DF93CF930B
:1036A00082ED96E09F938F930E949D0580ED96E0BA
:1036B0000E94040587EB96E00E9404058C2F817020
:1036C0001F928F9384EB96E09F938F930E949D05AA
:1036D0008DB79EB780960FB6F8949EBF0FBE8DBF74
:1036E00082EB96E00E9404058BE996E00E940405B7
:1036F000C1FB882780F91F928F9388E996E09F93FA
:103700008F930E949D0586E996E00E94040584E857
:1037100096E00E9404058D2F81701F928F9381E89F
:1037200096E09F938F930E949D058FE796E00E94FD
:1037300004058DE696E00E940405D695D1701F928F
:10374000DF938AE696E09F938F930E949D0588E61B
:1037500096E00E94040586E596E00E940405C2FBFF
:10376000882780F91F928F9383E596E09F938F932C
:103770000E949D0581E596E00E9404058FE396E096
:103780000E940405C3FB882780F91F928F938CE366
:1037900096E09F938F930E949D058AE396E00E9496
:1037A000040580E396E00E940405C4FB882780F9A5
:1037B0001F928F938DE296E09F938F930E949D05B9
:1037C0008BE296E00E94040589E196E00E940405E0
:1037D000C5FB882780F91F928F9386E196E09F931F
:1037E0008F930E949D0584E196E00E94040588EF76
:1037F00095E00E940405C6FB882780F91F928F93ED
:1038000085EF95E09F938F930E949D058DB79EB79E
:1038100080960FB6F8949EBF0FBE8DBF83EF95E0E4
:103820000E9404058BEE95E00E940405C7FBCC279F
:10383000C0F91F92CF9388EE95E09F938F930E94DB
:103840009D0586EE95E00E9404050F900F900F9065
:103850000F9049C0803109F4B4C020F48E3009F4CF
:103860009AC007C1863109F4C7C0893109F001C186
:1038700089E194E00E94040580E094E00E94040540
:1038800089EC93E00E94040580E993E00E9404051E
:1038900083E693E00E94040585E393E08FC08A32BB
:1038A000E1F060F4873209F4E0C028F48E3108F4C6
:1038B000E0C08D51DBC0893269F1DBC0833448F44C
:1038C0008A3308F0D0C0853309F4CFC0883369F05B
:1038D000D0C0833409F4C9C0CCC085EE97E00E9403
:1038E00004050E943E19C1E0C9C083E494E066C0AB
:1038F0008091BB01817F8E7F8093BB0188E294E041
:103900000E94040581EE97E00E94040581E0809307
:10391000BD01E9CF0E941C1285EC97E00E940405CE
:103920009FEF23ED80E3915020408040E1F700C0FD
:1039300000000E94701AD7CF8091BB01C82FC0959C
:10394000C170C0FB80F98093BB01CC2329F089EBC7
:1039500097E00E94040592C08CEA97E00E9404055B
:103960008091BB01897F877F8093BB01BCCF909101
:10397000BB0191FBCC27C0F981E0C827892FC0FB90
:1039800081F98093BB01CC2319F08FE997E029C01E
:1039900081E997E013C09091BB0192FBCC27C0F95D
:1039A00081E0C827892FC0FB82F98093BB01CC231B
:1039B00019F082E897E015C082E797E00E940405BD
:1039C00092CF9091BB0193FBCC27C0F981E0C8272F
:1039D000892FC0FB83F98093BB01CC2351F086E68D
:1039E00097E00E9404058091BB0181608093BB0138
:1039F00045C089E597E0E2CF87E293E00E940405A5
:103A00000E946F0C1F928F938DE093E09F938F9392
:103A10000E949D0580910C011F928F9386EF92E08A
:103A20009F938F930E949D058091CA011F928F934F
:103A300083EE92E09F938F930E949D050E94141A3B
:103A40009F938F937F936F938CEC92E09F938F93D0
:103A50000E949D058DB79EB742960FB6F8949EBF03
:103A60000FBE8DBF40CF895301C080E00E94991ADC
:103A70003ACF87E597E00E940405C0E08C2FDF91E4
:103A8000CF91089580E0089580E00895CF93C82FE6
:103A90008091BD01882319F0813031F038C00E9437
:103AA000D3178232B1F504C00E94D317823261F479
:103AB0008C2F0E94421D811104C08C2F0E94B91AC4
:103AC00024C081E090E021C08C2F0E94441D811110
:103AD0001BC0C43189F018F4CB3029F010C0C932B2
:103AE00059F0C83361F488E294E00E94040583EC45
:103AF00092E00E94040508C01092BD010CC081EC48
:103B000092E00E94040507C081E0817006C0109217
:103B1000BD0180E002C080E0F8CFCF910895809190
:103B2000C901089508959FB7F8941092C0019FBFEE
:103B30009091D601943009F057C09091E9009F70A0
:103B40003091EC00232F217030FD20E8922B23E0F0
:103B50002093E9002091EB0020FF43C02091EE006C
:103B600027FF3FC02091BE01222321F02091E800D1
:103B700025FF37C01092BE0126E03091E80035FDE8
:103B800015C03091D601343061F53091EB0035FD30
:103B900028C0215021F481E08093BE0122C0EFE9CA
:103BA000FFE03197F1F700C00000E7CF8093F1000C
:103BB0008091E80085FD0AC08091E80080FFFCCF7D
:103BC0008091E8008E778093E80006C08FB7F89464
:103BD00021E02093C0018FBF9F709093E90080E0A7
:103BE00008959F709093E9008FEF08950F931F93AE
:103BF000CF93DF9300D01F92CDB7DEB78C010E9428
:103C00008120823011F0843021F584E089831B8388
:103C10000A8382E08093E9008FEF9091E800815061
:103C200095FD06C095ED9A95F1F700008111F5CF4D
:103C30008091E80085FF0DC040E050E063E070E057
:103C4000CE0101960E949E208091E8008E7780939D
:103C5000E8000F900F900F90DF91CF911F910F917F
:103C60000895CF93DF9300D01F92CDB7DEB7209198
:103C7000D601243031F523E02983805891099B83B4
:103C80008A8382E08093E9008FEF9091E800815071
:103C900095FD06C095ED9A95F1F700008111F5CFDD
:103CA0008091E80085FF0DC040E050E063E070E0E7
:103CB000CE0101960E949E208091E8008E7780932D
:103CC000E8000F900F900F90DF91CF910895CF9360
:103CD000DF93EC010E948120823011F0843039F5AD
:103CE00081E08093E9008FEF9091E800815095FD8D
:103CF00006C095ED9A95F1F700008111F5CF8091FE
:103D0000E80085FF14C040E050E068E070E0CE01BC
:103D10000E949E208091E8008E778093E80088E0E2
:103D2000FE01A1ECB1E001900D928A95E1F7DF91DF
:103D3000CF91089586E298E00E9404058091D50114
:103D4000811109C00E9433220E9490228091E200DA
:103D500084608093E200089582E298E00E94040566
:103D60001092D50108958EE198E00C9404058AE143
:103D700098E00C94040586E198E00E9404050C94F8
:103D8000CE192091BF012F5F822F62E30E94392557
:103D9000992319F02093BF0108951092BF018091DB
:103DA000C001882371F18091D601843041F5809162
:103DB000E9008F702091EC00922F917020FD90E827
:103DC000892B93E09093E9009091EB0090FF14C051
:103DD0009091EE0097FF10C09091E80095FF03C00E
:103DE0001092F100F9CF9091E80090FF05C09091FA
:103DF000E8009E779093E8008F708093E90010921E
:103E0000C001089542E061EC81E00E94AD2142E2F0
:103E100061EC82E00E94AD2142E261EC83E00C940F
:103E2000AD218091D801833009F460C030F4813035
:103E300071F0823009F499C008958A3009F485C080
:103E40008B3009F46BC0893009F0A7C020C0809185
:103E5000D701813A09F0A1C08091E800877F809363
:103E6000E8008091DB019091DC01892B21F468E06E
:103E700081EC91E003C060E080E090E070E00E949F
:103E8000E9208091E8008B778093E8000895809185
:103E9000D701813209F081C08091DB019091DC0172
:103EA000029708F07AC08091E800877F8093E8004D
:103EB0008091E80082FD05C08091D6018111F8CF84
:103EC0006CC02091F3008091F20090E0922B029759
:103ED00029F48091F1008B7F813021F48091F100F1
:103EE0008093C9018091E8008B7753C08091D701FE
:103EF000813A09F052C08091DB019091DC01892B5D
:103F000009F04BC08091E800877F8093E8008091A2
:103F1000E80080FFFCCF80910C0136C08091D70172
:103F20008132D9F58091DB019091DC01892BA9F5D3
:103F30008091E800877F8093E8000E94E2218091D1
:103F4000D90180930C010C941C128091D70181320D
:103F500021F58091E800877F8093E8000E94E221AC
:103F60008091DA018093CA0108958091D701813A46
:103F7000A1F48091E800877F8093E8008091E800B9
:103F800080FFFCCF8091CA018093F1008091E8000E
:103F90008E778093E8000C94E221089584B7877FA0
:103FA00084BF0FB6F894A8958091600088618093D3
:103FB0006000109260000FBE90E080E80FB6F894A9
:103FC00080936100909361000FBE0E94FE0C0E94DE
:103FD00033220E9490228091E20084608093E2006C
:103FE00083E99DE10E94831878940E941E250E9417
:103FF000060D82E091E00E946A0C85E098E00E9444
:1040000004058091D601853089F481E098E00E9412
:1040100004050E9485198091D401882391F30E94A0
:10402000B719882371F30E948820EBCF0E94360DC8
:10403000E8CF0C941B20292F332723303105C9F0FA
:1040400064F42130310581F02230310509F049C096
:104050008BE590E028E538E048C02132310521F1B8
:104060002232310571F13DC082E190E023EB38E06E
:104070003CC099278130910571F02CF4892B89F58A
:10408000E4E5F8E00DC08230910541F0039749F571
:10409000EAE2F8E005C0E6E4F8E002C0E0E3F8E0B8
:1040A000849190E09F0121C063307105D0F4660FC8
:1040B000771FFB01ED5DFE4F2081318189E090E0AB
:1040C00014C06330710568F4FB01EE0FFF1FE35E5F
:1040D000FE4F20813181FB01E65EFE4F808190E042
:1040E00004C080E090E020E030E0FA0131832083DA
:1040F00008958091D601843011F081E0089582E026
:1041000008958091CB01811102C00C94792008950B
:1041100080E189BD82E189BD09B400FEFDCF8091B7
:10412000D8008F7D8093D8008091E00082608093DA
:10413000E0008091E00081FDFCCF0895CF92DF92F6
:10414000EF92FF920F931F93CF93DF93EC018B01BC
:104150006A010E940122811133C0C114D10439F0D7
:10416000F60180819181081B190BC80FD91FE12C22
:10417000F12C0115110519F18091E80085FD16C09B
:104180008091E8008E778093E800C114D10449F053
:10419000F60180819181E80EF91EF182E08285E0CE
:1041A0000FC00E940122882321F30AC089918093C5
:1041B000F10001501109FFEFEF1AFF0ADACF80E09A
:1041C000DF91CF911F910F91FF90EF90DF90CF90F3
:1041D00008952091DD013091DE012617370748F060
:1041E0006115710539F42091E8002E772093E800DD
:1041F00001C0B90140E061157105A9F12091D60116
:10420000222309F443C0253009F442C02091E8007C
:1042100023FD40C02091E80022FD32C02091E8003B
:1042200020FFE9CF4091F3002091F20030E0342BE1
:10423000FC01CF016115710559F02830310540F4BA
:1042400081918093F100615071092F5F3F4FF1CF51
:1042500041E02830310509F040E02091E8002E7758
:104260002093E800C8CF4111C9CF0AC08091D60180
:10427000882361F0853061F08091E80083FD0AC0F9
:104280008091E80082FFF2CF80E0089582E00895F7
:1042900083E0089581E008952091DD013091DE01F1
:1042A0002617370748F06115710539F42091E800A9
:1042B0002E772093E80001C0B901FC0120E06115D0
:1042C000710591F18091D601882309F440C08530B1
:1042D00009F43FC08091E80083FD3DC08091E80073
:1042E00082FD2FC08091E80080FFE9CF2091F3008C
:1042F0008091F20090E0922B6115710559F08830A1
:10430000910540F424912093F10031966150710998
:104310000196F2CF21E0089709F020E08091E800B3
:104320008E778093E800CBCF2111CCCF0AC080914B
:10433000D601882361F0853061F08091E80083FD2B
:104340000AC08091E80082FFF2CF80E0089582E009
:10435000089583E0089581E00895982F973058F5E7
:104360009093E900981739F07091EC002091ED00DE
:104370005091F00003C0242F762F50E021FF19C088
:104380003091EB003E7F3093EB003091ED003D7FAC
:104390003093ED003091EB0031603093EB0070937F
:1043A000EC002093ED005093F0002091EE0027FFE9
:1043B00007C09F5FD3CF8F708093E90081E008959D
:1043C00080E008958091D70187FF11C08091E800B7
:1043D00082FD05C08091D6018111F8CF11C0809176
:1043E000E8008B770BC08091D601882349F080913B
:1043F000E80080FFF8CF8091E8008E778093E80096
:1044000008952091E4003091E50095E64091EC009C
:10441000842F817040FF22C08091E80080FD1CC085
:104420008091D601882391F0853091F08091EB0046
:1044300085FD10C04091E4005091E50042175307FC
:1044400029F39A01915011F784E0089582E00895CC
:1044500083E0089581E0089580E008954091E800A8
:1044600042FFDECF08950E94A1220E94A922E0EE21
:10447000F0E0808181608083E8EDF0E080818F77DB
:10448000808319BCA7EDB0E08C918E7F8C938081E6
:104490008F7E80831092D50108950F931F93CF9341
:1044A000DF930E94A1220E94A922C8EDD0E088815A
:1044B0008F77888388818068888388818F7D8883CF
:1044C00019BC1092D6011092D2011092D401109210
:1044D000D30100EE10E0F80180818B7F808388811A
:1044E0008160888342E060E080E00E94AD21E1EEDF
:1044F000F0E080818E7F8083E2EEF0E08081816059
:104500008083808188608083F80180818E7F8083B2
:10451000888180618883DF91CF911F910F910895E9
:10452000E8EDF0E080818F7E8083E7EDF0E0808130
:104530008160808384E082BF81E08093D5010C9408
:104540004D22E8EDF0E080818E7F80831092E200C2
:1045500008951092DA001092E10008951F920F92D0
:104560000FB60F9211242F933F934F935F936F9346
:104570007F938F939F93AF93BF93EF93FF9380911C
:10458000E10082FF0BC08091E20082FF07C08091B2
:10459000E1008B7F8093E1000E94C11E8091DA00D0
:1045A00080FF1FC08091D80080FF1BC08091DA007F
:1045B0008E7F8093DA008091D90080FF0DC080E16A
:1045C00089BD82E189BD09B400FEFDCF81E0809301
:1045D000D6010E949A1E05C019BC1092D6010E94F5
:1045E000AC1E8091E10080FF19C08091E20080FF45
:1045F00015C08091E2008E7F8093E2008091E200FE
:1046000080618093E2008091D80080628093D8001E
:1046100019BC85E08093D6010E94B71E8091E1000D
:1046200084FF30C08091E20084FF2CC080E189BD0E
:1046300082E189BD09B400FEFDCF8091D8008F7D55
:104640008093D8008091E1008F7E8093E10080917B
:10465000E2008F7E8093E2008091E200816080938F
:10466000E2008091D201882311F084E007C080919C
:10467000E30087FD02C081E001C083E08093D601A2
:104680000E94BB1E8091E10083FF29C08091E2005F
:1046900083FF25C08091E100877F8093E10082E065
:1046A0008093D6011092D2018091E1008E7F809399
:1046B000E1008091E2008E7F8093E2008091E20031
:1046C00080618093E20042E060E080E00E94AD21E2
:1046D0008091F00088608093F0000E94B31EFF91EB
:1046E000EF91BF91AF919F918F917F916F915F916A
:1046F0004F913F912F910F900FBE0F901F901895E3
:104700001F920F920FB60F9211242F933F934F9346
:104710005F936F937F938F939F93AF93BF93CF9349
:10472000DF93EF93FF93C091E900CF708091EC008D
:10473000D82FD17080FDD0E81092E9008091F00070
:10474000877F8093F00078940E94C4231092E90040
:104750008091F00088608093F000CD2BCF70C093E3
:10476000E900FF91EF91DF91CF91BF91AF919F91C0
:104770008F917F916F915F914F913F912F910F900A
:104780000FBE0F901F9018951F93CF93DF93CDB757
:10479000DEB7AA970FB6F894DEBF0FBECDBFE7ED28
:1047A000F1E088E08E0F9091F10091938E13FBCF92
:1047B0000E94111F8091E80083FF28C18091D701DA
:1047C0009091D801492F50E04A30510508F01EC1A0
:1047D000FA01EC58FF4F0C944525803821F08238BF
:1047E00009F014C108C08091D3019091D40199239C
:1047F00089F082600FC08091DB018F70873008F0F4
:1048000005C18093E9008091EB0085FB882780F942
:104810001092E9009091E800977F9093E8008093D0
:10482000F1001092F100D0C0282F2D7F09F0EEC0CA
:10483000882319F0823061F0E9C08091D90181307C
:1048400009F0E4C0933009F080E08093D4012EC0D9
:104850008091D90181112AC08091DB018F702FEFE7
:10486000280F263008F0D2C08093E9002091EB0099
:1048700020FF1CC0933021F48091EB00806214C0B3
:104880009091EB0090619093EB0021E030E0A90162
:1048900002C0440F551F8A95E2F74093EA00109238
:1048A000EA008091EB0088608093EB001092E900B1
:1048B0008091E800877F8093E8000E94E221A6C0F3
:1048C0008111A4C01091D9011F778091E3008078F5
:1048D000812B8093E3008091E800877F8093E8003C
:1048E0000E94E2218091E80080FFFCCF8091E300EC
:1048F00080688093E300111102C082E001C083E070
:104900008093D60183C08058823008F07FC08091A8
:10491000D9019091DA018C3D53E0950779F583E058
:104920008A838AE289834FB7F894DE01139620E0E8
:104930003EE051E2E32FF0E050935700E49120FF76
:1049400003C0E295EF703F5FEF708E2F90E0EA308A
:1049500010F0C79601C0C0968D939D932F5F2431B0
:1049600049F74FBF8091E800877F8093E8006AE2B3
:1049700070E0CE0101960E94E92015C06091DB0134
:104980007091DC01AE014F5F5F4F0E941920BC01A6
:10499000892BE1F19091E800977F9093E80089815D
:1049A0009A810E944C218091E8008B778093E800E7
:1049B0002DC0803859F58091E800877F8093E8000A
:1049C0008091D2018093F1008091E8008E7773CFBF
:1049D00081111CC09091D9019230C0F48091E800FF
:1049E000877F8093E8009093D2010E94E22180911A
:1049F000D201811106C08091E30087FD02C081E0F1
:104A000001C084E08093D6010E94021F8091E800DB
:104A100083FF0AC08091E800877F8093E80080913F
:104A2000EB0080628093EB00AA960FB6F894DEBF8D
:104A30000FBECDBFDF91CF911F910895CF9380918D
:104A4000D6018823A1F0C091E900CF709091EC00CD
:104A5000892F817090FD80E8C82B1092E900809129
:104A6000E80083FD0E94C423CF70C093E900CF917A
:104A70000895991B79E004C0991F961708F0961BBA
:104A8000881F7A95C9F780950895EE0FFF1F05904E
:104A9000F491E02D0994F999FECF92BD81BDF89A69
:104AA000992780B50895A8E1B0E042E050E00C9469
:104AB0007F25262FF999FECF92BD81BDF89A0197E7
:104AC00000B4021639F01FBA20BD0FB6F894FA9A56
:104AD000F99A0FBE08950396272F0E945A250E9427
:104AE0005925252F0E945A25242F0C945A250196CA
:104AF000272F0E945A250C945925DC01CB01FC017B
:104B0000F999FECF06C0F2BDE1BDF89A319600B426
:0E4B10000D9241505040B8F70895F894FFCF31
:104B1E00B0018F1D671E921D311EF61D0194669702
:104B2E00C63435F4F5F6F73133324036221D09E737
:0A4B3E0008C5086A0883089C0800F7
:00000001FF
